{
  "transactions": [
    {
      "hash": "0xc708593f4d27f3d640a916b4eb3ffc576041eb96f0e0f6c266a04447b7c0d9ef",
      "transactionType": "CALL",
      "contractName": null,
      "contractAddress": "0xc76c9f0bb031245ce145c0b7b822e2d0a1267e89",
      "function": "createPublicEvent(string,uint256,uint256,uint256,uint8)",
      "arguments": [
        "Test Event",
        "1779259404",
        "1779864204",
        "1000000000000000000",
        "2"
      ],
      "transaction": {
        "from": "0xab26c86b78dedb488bf0cb4face11b048ddefe5b",
        "to": "0xc76c9f0bb031245ce145c0b7b822e2d0a1267e89",
        "gas": "0x41f98",
        "value": "0x0",
        "input": "0x2de5451200000000000000000000000000000000000000000000000000000000000000a0000000000000000000000000000000000000000000000000000000006a0d580c000000000000000000000000000000000000000000000000000000006a16928c0000000000000000000000000000000000000000000000000de0b6b3a76400000000000000000000000000000000000000000000000000000000000000000002000000000000000000000000000000000000000000000000000000000000000a54657374204576656e7400000000000000000000000000000000000000000000",
        "nonce": "0x34",
        "chainId": "0xaa044c"
      },
      "additionalContracts": [],
      "isFixedGasLimit": false
    }
  ],
  "receipts": [
    {
      "status": "0x1",
      "cumulativeGasUsed": "0x3b042",
      "logs": [
        {
          "address": "0xc76c9f0bb031245ce145c0b7b822e2d0a1267e89",
          "topics": [
            "0x9434147afc94fd7da345df588bdf83d7d236ea7d2e51f3842039594b86fb763d",
            "0x0000000000000000000000000000000000000000000000000000000000000001"
          ],
          "data": "0x0000000000000000000000000000000000000000000000000000000000000080000000000000000000000000000000000000000000000000000000006a0d580c000000000000000000000000000000000000000000000000000000006a16928c0000000000000000000000000000000000000000000000000de0b6b3a7640000000000000000000000000000000000000000000000000000000000000000000a54657374204576656e7400000000000000000000000000000000000000000000",
          "blockHash": "0xdd214b8217877c41b0c356467977137771a9067168428e4dbeda80cf81f679a2",
          "blockNumber": "0x1871493",
          "blockTimestamp": "0x6a081227",
          "transactionHash": "0xc708593f4d27f3d640a916b4eb3ffc576041eb96f0e0f6c266a04447b7c0d9ef",
          "transactionIndex": "0x1",
          "logIndex": "0x0",
          "removed": false
        }
      ],
      "logsBloom": "0x00200000000000000000000000000000000000000000000000000000000000000000000000000000000000000000000000000000000000000000000000040100000000000000000000000000000000000000000000040000000000000000000000000000000000040000000000000000000000000000000000000000000000000000000000000000000000000000000000000000000000000000000000000000001000000000000000000000000000000000000000000000000000000000000000000000000000000000000000000000000000000000000000000000000050000000000000000000000000000000000000000000000000000000001000000000",
      "type": "0x2",
      "transactionHash": "0xc708593f4d27f3d640a916b4eb3ffc576041eb96f0e0f6c266a04447b7c0d9ef",
      "transactionIndex": "0x1",
      "blockHash": "0xdd214b8217877c41b0c356467977137771a9067168428e4dbeda80cf81f679a2",
      "blockNumber": "0x1871493",
      "gasUsed": "0x2fc3c",
      "effectiveGasPrice": "0xba43b7401",
      "blobGasUsed": "0x6c",
      "from": "0xab26c86b78dedb488bf0cb4face11b048ddefe5b",
      "to": "0xc76c9f0bb031245ce145c0b7b822e2d0a1267e89",
      "contractAddress": null,
      "daFootprintGasScalar": "0x1",
      "l1BaseFeeScalar": "0x0",
      "l1BlobBaseFee": "0x1",
      "l1BlobBaseFeeScalar": "0x0",
      "l1Fee": "0x0",
      "l1GasPrice": "0x11",
      "l1GasUsed": "0x6cd"
    }
  ],
  "libraries": [],
  "pending": [],
  "returns": {},
  "timestamp": 1778913831874,
  "chain": 11142220,
  "commit": "867a1af"
}