{
  "transactions": [
    {
      "hash": "0xce39a40336aefbc103fa0382899f3f00feec054bdcae6a930294595fe38cdf20",
      "transactionType": "CALL",
      "contractName": null,
      "contractAddress": "0xc76c9f0bb031245ce145c0b7b822e2d0a1267e89",
      "function": "createPublicEvent(string,uint256,uint256,uint256,uint8)",
      "arguments": [
        "Test Event",
        "1779257646",
        "1779862446",
        "1000000000000000000",
        "2"
      ],
      "transaction": {
        "from": "0xab26c86b78dedb488bf0cb4face11b048ddefe5b",
        "to": "0xc76c9f0bb031245ce145c0b7b822e2d0a1267e89",
        "gas": "0x4107c",
        "value": "0x0",
        "input": "0x2de5451200000000000000000000000000000000000000000000000000000000000000a0000000000000000000000000000000000000000000000000000000006a0d512e000000000000000000000000000000000000000000000000000000006a168bae0000000000000000000000000000000000000000000000000de0b6b3a76400000000000000000000000000000000000000000000000000000000000000000002000000000000000000000000000000000000000000000000000000000000000a54657374204576656e7400000000000000000000000000000000000000000000",
        "nonce": "0x33",
        "chainId": "0xaa044c"
      },
      "additionalContracts": [],
      "isFixedGasLimit": false
    }
  ],
  "receipts": [
    {
      "status": "0x1",
      "cumulativeGasUsed": "0x3a552",
      "logs": [
        {
          "address": "0xc76c9f0bb031245ce145c0b7b822e2d0a1267e89",
          "topics": [
            "0x9434147afc94fd7da345df588bdf83d7d236ea7d2e51f3842039594b86fb763d",
            "0x0000000000000000000000000000000000000000000000000000000000000000"
          ],
          "data": "0x0000000000000000000000000000000000000000000000000000000000000080000000000000000000000000000000000000000000000000000000006a0d512e000000000000000000000000000000000000000000000000000000006a168bae0000000000000000000000000000000000000000000000000de0b6b3a7640000000000000000000000000000000000000000000000000000000000000000000a54657374204576656e7400000000000000000000000000000000000000000000",
          "blockHash": "0xf874991bfd58ad699f45a1a2e6e1032adf0ccdb93f68e6f50ed09952a1d78ccb",
          "blockNumber": "0x1870dae",
          "blockTimestamp": "0x6a080b42",
          "transactionHash": "0xce39a40336aefbc103fa0382899f3f00feec054bdcae6a930294595fe38cdf20",
          "transactionIndex": "0x1",
          "logIndex": "0x0",
          "removed": false
        }
      ],
      "logsBloom": "0x00200000000000000000000000000000000000000000000000000000000000000000000000000000000000000000000000000000000000000000000000000100000000000000000000000000000000000000000000000000000000000000000000000000020000040000000000000800000000000000000000000000000000000000000000000000000000000000000000000000000000000000000000000000001000000000000000000000000000000000000000000000000000000000000000000000000000000000000000000000000000000000000000000000000030000000000000000000000000000000000000000000000000000000001000000000",
      "type": "0x2",
      "transactionHash": "0xce39a40336aefbc103fa0382899f3f00feec054bdcae6a930294595fe38cdf20",
      "transactionIndex": "0x1",
      "blockHash": "0xf874991bfd58ad699f45a1a2e6e1032adf0ccdb93f68e6f50ed09952a1d78ccb",
      "blockNumber": "0x1870dae",
      "gasUsed": "0x2f14c",
      "effectiveGasPrice": "0xba43b7401",
      "blobGasUsed": "0x6c",
      "from": "0xab26c86b78dedb488bf0cb4face11b048ddefe5b",
      "to": "0xc76c9f0bb031245ce145c0b7b822e2d0a1267e89",
      "contractAddress": null,
      "daFootprintGasScalar": "0x1",
      "l1BaseFeeScalar": "0x0",
      "l1BlobBaseFee": "0x1",
      "l1BlobBaseFeeScalar": "0x0",
      "l1Fee": "0x0",
      "l1GasPrice": "0x11",
      "l1GasUsed": "0x6cd"
    }
  ],
  "libraries": [],
  "pending": [],
  "returns": {},
  "timestamp": 1778912067266,
  "chain": 11142220,
  "commit": "867a1af"
}